:020000040800F2
:10000000F8220020C1020008955200086151000842
:100010009152000871340008255A000800000000C1
:10002000000000000000000000000000C5520008B1
:10003000B13400080000000099520008C7520008BF
:10004000DB020008DB020008DB020008DB0200081C
:10005000DB020008DB020008DB020008DB0200080C
:10006000DB020008DB020008DB020008DB020008FC
:10007000DB020008DB020008DB020008DB020008EC
:1000800075340008DB020008DB020008DB02000810
:10009000DB020008DB020008DB020008DB020008CC
:1000A000DB020008DB020008DB020008DB020008BC
:1000B00039530008DB020008DB020008DB020008FD
:1000C000DB020008DB020008DB020008DB0200089C
:1000D000DB020008DB020008055A0008DB0200080A
:1000E000DB020008DB020008DB020008DB0200087C
:1000F000DB020008DB020008DB020008DB0200086C
:10010000DB020008DB020008DB020008DB0200085B
:10011000DB020008DB020008DB020008DB0200084B
:10012000DB020008DB020008DB020008DB0200083B
:1001300000F002F800F0B4F80AA090E8000C824445
:100140008344AAF10107DA4501D100F0A9F8AFF222
:10015000090EBAE80F0013F0010F18BFFB1A43F0A5
:1001600001031847DC840000FC8400000A444FF0BF
:10017000000C10F8013B13F0070408BF10F8014B06
:100180001D1108BF10F8015B641E05D010F8016B4B
:10019000641E01F8016BF9D113F0080F1EBF10F8AF
:1001A000014BAD1C0C1B09D16D1E58BF01F801CBD2
:1001B000FAD505E014F8016B01F8016B6D1EF9D555
:1001C0009142D6D37047000000230024002500266A
:1001D000103A28BF78C1FBD8520728BF30C148BFAA
:1001E0000B6070476E2900F0FC85702900F05F827B
:1001F000662908F0A380652908F0A080672908F027
:100200009D80612908F09C8003681B0A28BF41F08B
:100210008001692900F0D081642900F0CD81752921
:1002200000F0CA816F2901F0F880782900F02B8254
:10023000E92901F09380E42901F09080F52901F08B
:100240008D80EF2901F0F580F82900F02A820368FB
:10025000DB0928BF41F08001632901F01480732974
:1002600001F01980E32901F02B86F32901F0308693
:10027000002070471FB59DE8030000F011FD01F05C
:10028000EBFB04000020002107F05AFC401C6060DA
:100290000020002107F06AFCE0601FBD10B510BD12
:1002A00002F06EF81146FFF7E5FF06F0D3F802F012
:1002B000CFFA03B4FFF7F2FF03BC02F0FFFA00002D
:1002C0000948804709480047FEE7FEE7FEE7FEE7EA
:1002D000FEE7FEE7FEE7FEE7FEE7FEE70448054926
:1002E000054A064B704700003553000831010008ED
:1002F000F80E0020F8220020F81E0020F81E002032
:1003000070B5064600F0ACFC056806F10B0020F065
:100310000704B4429CBF002070BD2B466A68BAB186
:100320001068A04210D304F1080188423CBF506815
:10033000586007D35168101941601168091B0160AA
:1003400058601460101D70BD13465268002AE7D132
:100350002146284600F090FC0028DED170BD70B523
:100360000446051F00F07CFC0068002C14BF4468A4
:1003700070BD002C18BFAC423CBF20466468F8D367
:1003800001680A18AA4218BF456003D12A680546C9
:100390001144016028684119A1421CBF6C6070BD06
:1003A0006168696021680844286070BD70B50D46B9
:1003B0000646041F00F054FCD0F800C0C5B1E6B1F9
:1003C00005F10B0020F00703AB423CBF002070BDDD
:1003D0002068984238BFDCF8042013D3C11A0829DA
:1003E0002FD3E01840F8041B2360FFF7B8FF28E084
:1003F0003046FFF7B4FF002070BD2846BDE87040CE
:10040000FFF77EBF002A18BFA2423CBF9446526845
:10041000F8D30119914216D111680844984212D3B9
:10042000C11A08293CBF2060506808D35168E01801
:100430004160216812681144C91A01602360CCF838
:100440000400201D70BD181FFFF75AFF050007D0DC
:1004500021680A1F211D00F011FB201DFFF77FFFFF
:10046000284670BD10B5044600F0F2FB0068005D40
:10047000C00602D504F1200010BD204610BD0000CA
:100480007CB51D4616460C00009001D02044401E4D
:10049000074B7B442A4669460190304600F0C9FE6E
:1004A00005461CB10020694600F0D6FE28467CBDFA
:1004B000CD0D00000FB41CB5084B06AA7B4469465D
:1004C0000090059800F0B5FE04460020694600F053
:1004D000C3FE20461CBC5DF814FB0000990D000013
:1004E0000FB47CB50C0009AA009001D02044401E36
:1004F000084B7B4469460190089800F09AFE054637
:100500001CB10020694600F0A7FE28467CBC5DF8BF
:1005100014FB00006D0D000070B50446856900688D
:10052000C10601D5302600E02026C00707D070BDE7
:10053000D4E9012130469047206A401C20626D1E9C
:10054000F6D570BD70B5044685690078C00707D13F
:1005500070BDD4E9012120209047206A401C206210
:100560006D1EF6D570BD70B50C460546012A05D046
:100570002878800600D5EA69002302E0012305E01F
:100580005B1C934202D2E05C0028F9D1A869E6180E
:10059000C01AA861286A184428622846FFF7BCFFE1
:1005A00004E0D5E9012114F8010B9047B442F8D3D7
:1005B0002846FFF7C7FF70BD2DE9F041064600242D
:1005C00010687529314616A510D000F09FFB002851
:1005D00002DA404213A507E031688A0701D512A567
:1005E00002E0490704D511A5012401E000F097FBC2
:1005F00000210A2206F1240709E0B0FBF2FCB0FB5F
:10060000F2F302FB1C00303078541846491C0028D5
:10061000F3D123462A463046BDE8F04100F088BBBE
:10062000000000002D0000002B0000002000000052
:10063000F0B40D460188090502D5214C7C4402E046
:100640001F4C7C440E34002100F1240608E002F027
:100650000F071209E75D42EA03721B097754491C30
:1006600052EA0307F3D102780023120704D5702D54
:1006700006D009B1022311342246F0BC00F058BB69
:1006800001231034F8E770B504460D462146106882
:1006900000F045FB024629462046BDE87040002395
:1006A000C6E7D21D22F00703D3E90023C0E70368A1
:1006B000126843F0200303600823C3610023B7E7F7
:1006C0002A7E00002DE9F05F894604464FF0000ABB
:1006D000DFF874B1FB44C0F820A02046E1688847E9
:1006E000002874D0252806D0D4E901219047206A3B
:1006F000401C2062F1E700265F462046E1688847FB
:100700002028054607DB312D05D2781910F8200C7A
:1007100008B10643F1E7B00701D526F00406C4F896
:100720001CA00027C4F818A02A2D09D0284605F0DF
:100730002CFA38B304EB8708303DC8F8185019E09C
:1007400059F8041B204604EB87029161E168884751
:10075000012F054618D1E069002820DA26F020068E
:100760001DE0D8F8180000EB800005EB40003038A1
:10077000C8F818002046E1688847054605F005FAE4
:100780000028EED1012F0AD02E2D08D12046E16895
:1007900088477F1C0546022F46F02006C4DBA0696F
:1007A000002803DA404246F00106A061F00701D0BC
:1007B00026F010066C2D0BD0682D09D04C2D39D0A9
:1007C0006A2D35D0742D35D07A2D33D016E038E02F
:1007D000E1682F4620468847B842054609D16C2F6C
:1007E00026D04FF48060E1680643204688470546DE
:1007F00004E06C2F1AD04FF4807006430DB3A5F1BE
:100800004100192802D8203546F400664A46294698
:10081000204626604E46FFF7E5FC80B101280BD04C
:10082000F61D26F0070000F1080956E74020E4E72E
:100830008020D8E70020D6E706F104094DE72846D6
:1008400052E7206ABDE8F09FBA7D00000FB400B502
:100850008DB010A9099000910B904FF0FF300A90D5
:1008600000200C90064878440690064878446A4672
:1008700007900F9909A801F069F80DB05DF814FB15
:10088000031100001B110000401ECAB210F8011F26
:100890008A4202D00029F9D10020704730B50546C0
:1008A0000B462A4613F8014B12F8010B08B1A0427F
:1008B000F8D01CB1002802D06D1CF1E7284630BDED
:1008C00040EA0103024630B59B0710D14FF00134D6
:1008D00000E008C208C91D1B9D4315EAC41FF8D0DB
:1008E00013F0FF0102F8011B0DD01B0AF8E711F805
:1008F000013B002B02F8013B05D011F8013B002B16
:1009000002F8013BF3D130BD0022CBB210F8011B3D
:10091000994200D1421E0029F8D11046704710B507
:10092000431C02E010F8011B71B18107FAD14FF0AE
:10093000013202C88C1A8C4314EAC211F9D0C01AD1
:100940000A0603D0C01E10BDC01A10BD0A0401D093
:10095000801E10BD0902FCD0401E10BD40EA0103FC
:1009600070B59B072ED14FF00136042A2AD308C850
:1009700010C99D1B9D43121F15EAC61517D0D8B28A
:10098000E1B2401A50EA056110D198B2A1B2401A02
:1009900050EA05410AD123F07F4024F07F41401AFC
:1009A00050EA052102D1180EA0EB146070BDA342DD
:1009B000DBD018BA21BA884201D9012070BD4FF0AE
:1009C000FF3070BD0AB9002070BD10F8013B11F86E
:1009D000014B63B1A3420AD1521E08D010F8013B6B
:1009E00011F8014B1BB1A34201D1521EEDD1181BCE
:1009F00070BD032A40F2308010F0030C00F0158027
:100A000011F8013BBCF1020F624498BF11F801CB11
:100A100000F8013B38BF11F8013BA2F1040298BF76
:100A200000F801CB38BF00F8013B11F0030300F0E0
:100A30002580083AC0F0088051F8043B083A51F884
:100A400004CBA0E80810F5E7121D5CBF51F8043B89
:100A500040F8043BAFF30080D20724BF11F8013BFC
:100A600011F801CB48BF11F8012B24BF00F8013B5E
:100A700000F801CB48BF00F8012B704710B5203AB1
:100A8000C0F00B80B1E81850203AA0E81850B1E847
:100A90001850A0E81850BFF4F5AF5FEA027C24BFFD
:100AA000B1E81850A0E8185044BF18C918C0BDE8F4
:100AB00010405FEA827C24BF51F8043B40F8043BBD
:100AC00008BF7047D20728BF31F8023B48BF11F872
:100AD000012B28BF20F8023B48BF00F8012B7047CC
:100AE0004FF000020429C0F0128010F0030C00F057
:100AF0001B80CCF1040CBCF1020F18BF00F8012BD5
:100B0000A8BF20F8022BA1EB0C0100F00DB85FEAA2
:100B1000C17C24BF00F8012B00F8012B48BF00F86E
:100B2000012B70474FF0000200B5134694469646DD
:100B3000203922BFA0E80C50A0E80C50B1F12001F0
:100B4000BFF4F7AF090728BFA0E80C5048BF0CC09E
:100B50005DF804EB890028BF40F8042B08BF7047FC
:100B600048BF20F8022B11F0804F18BF00F8012B6E
:100B7000704710B5044610F0030F08BF11F0030FC3
:100B800040F015804FF0013E121FC0F20E8051F868
:100B9000043BA3EB0E0C2CEA030C1CEACE1C08BF92
:100BA00040F8043BF0D0A1F1040102F10402521E0E
:100BB00008DB11F8013B002B00F8013BF7D111468F
:100BC000FFF78EFF204610BD4FF0013C50F8042B7C
:100BD00051F8043B9A4221D1A2EB0C03934313EA50
:100BE000CC1317D150F8042B51F8043B9A4215D17D
:100BF000A2EB0C03934313EACC130BD150F8042B54
:100C000051F8043B9A4209D1A2EB0C03934313EA37
:100C1000CC13DBD04FF00000704700BFD01A01BAF0
:100C2000B1FA81F101F0180122FA01F0CB40C1F1D3
:100C30002001DBB2C0B2C01A2CFA01F3D11A9143E1
:100C400011EAC311E6D17047704770477047000042
:100C500010B500F001FF001D10BD00BFE56E0000E3
:100C600000487047A00E002000487047980E0020F2
:100C7000704770477047704738B504460A460020F1
:100C80006946AFF30080002808BF38BD02460099CE
:100C9000204600F0E5FE012038BD012001F068BBD0
:100CA000F8B5AFF30080054600200C46102000BFC9
:100CB0000646A819A0420DD9324669460020AFF376
:100CC0000080070008BF01F053FB0098A04218BF46
:100CD0000546C419FFF7C4FF05600746F01D20F064
:100CE00007004619284600F00AF8B44208BFF8BDCC
:100CF000A21B31463868BDE8F84000F0B1BE0021C3
:100D00000160C0E9011070471020704709684A056A
:100D100001D540B27047C905FCD500B270470968DB
:100D20004A0501D5C0B27047C905FCD580B27047ED
:100D30002DE9F0470D4699469246044600F12408F5
:100D40000168880604D5E06921F01001216000E007
:100D50000120A84201DD471B00E00027A1697A19A4
:100D600002EB0900081AA0612078C00602D42046D0
:100D7000FFF7D2FB002608E0D4E901211AF80600AB
:100D80009047206A401C761C20624E45F4DB207898
:100D9000C0060AD52046FFF7BFFB06E0D4E90121D3
:100DA00030209047206A401C2062381EA7F10107BE
:100DB000F4DC07E0D4E9012118F805009047206A27
:100DC000401C2062281EA5F10105F3DC2046FFF738
:100DD000B9FB2078000602D50220BDE8F08701208B
:100DE000FBE711680268006A530501D508700AE044
:100DF000D30501D5088006E0130603D5C217C1E963
:100E0000000200E008600120704770472DE9FF4FA5
:100E10000C461E464FF0FF378BB0D2E90001DDF8DB
:100E200060800A908A46C1F30A5505B93D46002103
:100E300008464FF00000BAF1000F00F4400005DA58
:100E400000EB80004FF4400101EA50004FEA905956
:100E5000B9F1010F00DDB9460A9850EA4A000ED0F8
:100E600044F61050A5F2FF3545432F14B8F1000F9A
:100E70001ED07542291E1EDDC9F100021CE0B8F12A
:100E8000010F4FF0000001D0302103E0F24305E0F4
:100E90002154401CB042FBDB30460022002121548B
:100EA0000B99C1F80880C1E900200FB0BDE8F08FB0
:100EB000BD1B6D1CDEE74A4600DA694206A801F058
:100EC000C5F906AB93E8070003AB83E8070050467B
:100ED0000A9901F02CFD8DE80700A0F500501F389D
:100EE00000900398002D0ADD42F21F014A46084493
:100EF000002303A90390684601F0D8FF09E0A0F59C
:100F000000504A461F38002303A90390684601F0A9
:100F1000F7FF8DE807000004000C03D04FF0FF300E
:100F2000410800E01046B8F1000F03D00022009203
:100F300015461EE0751E05D400F0ACFD303262553A
:100F40006D1EF9D5B3460122084302D000227F1C52
:100F500004E02078302801D100227F1E002A099762
:100F600084D01DE0112D07DA00F094FD3032625577
:100F70006D1C50EA0102F5D1084302D00098C8B1B7
:100F80000EE00021681E05E0235C625C635422547D
:100F9000401E491C8142F7DBAB46A81B401E09904E
:100FA000002004F80B000B98099AC0F80880C0E9EB
:100FB000002B7AE711264FF0000857E72DE9F04F94
:100FC00088460446D21D22F0070191B0D1E9000104
:100FD000CDE90A0104F028FD02460B98C00F01D0AC
:100FE0002D2007E02068810701D52B2002E0202179
:100FF00001EAC000032A099001D0072A05DB034655
:101000004146204600F012FF0BE12078800601D512
:10101000E06900E00620B8F1650F814606D0B8F11E
:10102000660F18D0B8F1670F70D131E00020B9F128
:10103000110F009001DB112301E009F101030AAA5D
:1010400001A90CA8FFF7E2FEDDE90C70002609F10A
:101050000105834647E001204B4600904FF00047D2
:101060000AAA01A90CA8FFF7D1FEDDE90DB00C9981
:101070005D46002610B909F101000D18B9EB050015
:1010800003D4C0F1FF3609F10105A5EB09002BE0FF
:10109000B9F1010F01DA4FF001090020B9F1110F88
:1010A0000090484601DD112300E003460AAA01A989
:1010B0000CA8FFF7ABFEDDE90C704D460026834619
:1010C000207800070AD4AB4500DA5D4601A8012D5F
:1010D00004DD411911F8011C302907D04F4502DA0F
:1010E00017F1040F04DA012082460FE06D1EEEE7CF
:1010F000002F02DCED1B3E4403E0781CA84200DD1B
:101100007D1CB81B00F1010A4FF000472078000752
:1011100003D4AA4501DB4FF0FF3A0021B7F1004F9D
:101120000DF143088DF8431024D002202B23002F0B
:1011300001DA7F422D230A21021EA0F1010000DC0A
:101140005FB197FBF1FC97FBF1F201FB1C7C1746AA
:101150000CF1300C08F801CDEEE7A8F101000370A6
:101160002188090501D5452100E06521A0F101088C
:1011700000F8011C09980FA9A1EB0807FF1D00B199
:101180000120411901EBEA70A1693844081A401E98
:10119000A0612078C00602D42046FFF7BDF9099867
:1011A00028B1D4E901219047206A401C20622078B0
:1011B000C00622D52046FFF7AFF91EE0002E04DB63
:1011C000B34502DD01A8805D00E03020D4E90121B3
:1011D0009047206A401C2062761CAAF101005FEA59
:1011E000000A0AD100F038FCC0680168405CD4E90C
:1011F00001219047206A401C2062281EA5F10105AC
:10120000DCDC07E0D4E9012118F8010B9047206AE3
:10121000401C2062381EA7F10107F3DC2046FFF7CF
:1012200091F9032011B041E601694A1C0261087876
:10123000704700B58FB0CDE9013100210591054916
:101240007944CDE9031011466846FFF73BFA0FB029
:1012500000BD0000E5FFFFFF0A6802F8010B0A600D
:101260007047D1E900239A4202D2531C0B601070E0
:10127000704710B5436913B1AFF3008001E0FFF789
:1012800072F9012010BD127800F124010A700022C9
:101290004A700122EDE711684FF0FF32E9E70000E4
:1012A0002DE9FF5F15468A460446DFF8AC80F84416
:1012B0000027D8E900103E46CDE9001010E03AF8CA
:1012C00016106A4602A801F033F8411C07D02178B5
:1012D000890603D5E269391891420DD80744761C76
:1012E0002078800602D5E069B84205DDAE42E6DB33
:1012F0003AF816000028E2D1A069C01BA061204680
:10130000FFF70AF9D8E90010CDE90010002017E036
:101310003AF818106A4602A801F00AF8B0F1FF3F47
:1013200081460BD000250DF1080B05E0D4E9012121
:101330001BF8050090476D1C4D45F7D308F10100DF
:10134000B0428046E4DB206A384420622046FFF742
:10135000F9F8BDE8FF9F0000F27100002DE9F041AF
:101360008046D21D22F007020025D2E90002F529AD
:1013700015A614D0011E72F1000106DA0023D0EB8D
:10138000030063EB020211A608E0D8F800108B07F7
:1013900001D50FA602E0490701D50EA60125114689
:1013A000002408F1240704E000F074FB30323A55C1
:1013B000641C50EA0102F7D12B46324621464046D2
:1013C000BDE8F041FFF7B4BC000000002D000000B4
:1013D0002B0000002000000030B4002100F12404A4
:1013E00008E002F00705D208303542EA4372DB0814
:1013F0006554491C52EA0305F3D10468002310A286
:10140000250707D5A40600D421B1C46901230DA284
:10141000641EC46130BCFFF78BBC10B50446214686
:101420001068FFF77CFC02462046BDE81040002310
:10143000D2E7D21D22F00701D1E90023CCE700005A
:1014400000000000300000002DE9FF4F06468BB081
:101450000878FF2806D0491C2D2805D000244FF01D
:10146000000908E000200CE00124F8E709EB8903FB
:10147000491C00EB43090878FF28F7D114B1C9F1E2
:1014800000008146107800252C46AA4629462D28C2
:1014900001D02B2804D1521C2D2813D000208246C5
:1014A0008B461078FF280FD04FF0000C0A21521CF9
:1014B000A5FB017804FB018105FB0C11C5194BEB61
:1014C0000104EEE70120EAE7002108464FF00000A2
:1014D000BAF1000F02D000EB80004008C0F3815742
:1014E000012F01DD4FF0FF370E9955EA040009EB9B
:1014F00001080BD04FF0020918F5FA7F16DA4FEA0F
:10150000CA70002F706008DD012007E04FEACA7042
:10151000C6E900B00FB0BDE8F08F00203060FFF7E3
:10152000A3FBC0F800901821084616E0B8F5FA7F32
:1015300018DD002F02DAF748784401E0F6487844D5
:10154000D0E90010C6E9001040EACA707060FFF7E9
:101550008BFBC0F80090142108460FB0BDE8F04F97
:1015600006F0E9BE002108464FF00000B8F1000186
:10157000099002DAC7F1000200E03A4601DAC8F148
:10158000000106A800F062FE06AB93E8070003AB7B
:1015900083E8070044F23E005BEA040100905846ED
:1015A00004D144F21E012C465D460091210C090431
:1015B000014306D10099240444EA15442D0410394E
:1015C000009104F07F41014306D10099240244EACE
:1015D00015642D020839009104F07041014306D1D1
:1015E0000099240144EA15742D01091F009104F0AB
:1015F0004041014306D10099A40044EA9574AD002E
:10160000891E009104F00041084304D100986D192F
:101610006441401E00904FF001033A466846B8F11D
:10162000000FCDE9014503A902DD01F07EFC01E0D8
:1016300001F051FCBAF1000F04460D4601D084F0D0
:101640000044002108464FF00000099940F2FF775E
:10165000484010F00C0F07D124F00040284303D07D
:10166000C4F30A50B84212D1FFF7FEFAC0F8009056
:10167000C4F30A50B8420AD1A8487844D0E900100F
:10168000C6E9001004F000410843706042E7C6E973
:1016900000543FE72DE9FF4F1F464FF0000A4FF07F
:1016A000FF38454691B0D7E90146CDF83CA000F09F
:1016B000D3F9C0680168405C1090B96912986D1C3C
:1016C0008847396A814688470028F6D1B9F1FF3F3B
:1016D0000AD0002E24F4D06411DDB9F12B0F08D00C
:1016E000B9F12D0F0BD102E0404615B013E744F4D9
:1016F0008064B96912986D1C8847761E8146600522
:1017000004A901D52D2000E02B20002E01F1010BB2
:101710000DF130088DF810003FDDB9F1690F08D0E8
:10172000B9F1490F05D0B9F16E0F02D0B9F14E0FE2
:101730001CD13B4601A8009580E85002DDE9121259
:101740006FF0020006F062FEC11CCED10EE0B96956
:1017500012986D1C884781461398761E44F40074D5
:1017600005600F98401C002E0F9016DDB9F1300F68
:10177000EDD0B9F1780F02D0B9F1580F0DD10F9813
:1017800001280AD13B46CDE90054DDE91212001FC1
:10179000029606F039FEC11CA7D1109989453ED1A9
:1017A00044F0800406E01399681CAAF1010A44F48D
:1017B00000740860B9696D1C1298761E884730283D
:1017C0008146F0D02BE01099894505D1200603D43D
:1017D000761E44F0800418E0484604F0D6F908B3B9
:1017E000761E0DF123018B4544F4007408D2A9F153
:1017F00030000BF8010B200607D5AAF1010003E029
:10180000200602D40AF101008246A00502D51399F0
:10181000681C0860B96912986D1C88478146002EC3
:10182000D1DC53E0002E51DDB9F1650F02D0B9F1E2
:10183000450F4BD1A00549D5B9696D1C1298761E8C
:1018400024F440748847002E81460CDD2B2804D0F8
:10185000B9F12D0F07D144F48074B96912986D1C49
:101860008847761E8146E00501D52D2100E02B2119
:1018700008F8011BCDF8008021E0761E0DF139013A
:10188000884544F400740CD2A9F1300010F0FF0038
:1018900088F8000002D10099884509D908F10108AB
:1018A00006E0E00501D51E4801E042F20F708246D5
:1018B000B96912986D1C8847814613980560002EFF
:1018C00004DD484604F061F90028D6D1F969129880
:1018D0008847FF2053468BF8000088F8000000205E
:1018E0000A900B9004AA0CA90AA8FFF7ADFDA00569
:1018F00002D46FF00100F8E614F0240F12D0E007D4
:101900001CD13868DDE90A12031D3B600068C0E99C
:10191000001213E02C7100001E710000E26F000045
:10192000F1D8FFFF0AA9684604F0BEF8E00705D128
:101930003868009A011D3960006802602846D4E6C4
:10194000026811441378016018467047D160054958
:1019500079445161044979441162002111611146B1
:1019600000F0BABAEDFFFFFFC5010000426842B1C6
:10197000016811F8013B23B1521EC0E9001218465C
:1019800070470121C160881E704742685AB1C36820
:10199000016843B983688B4205D0491E521CC0E9D7
:1019A0000012002070474FF0FF3070470FB4002343
:1019B00000B589B00CA900910B99CB60214B7B44F9
:1019C0000693214B7B44079304236FF00042CDE93B
:1019D00001321E4A7A446B4608920246002006F005
:1019E00011FD09B05DF814FB70B506464FF0FF30ED
:1019F00015460C46324686B00091CDE90101694694
:101A00000020049004A8FFF7D1FF02460498211893
:101A100025B108B1084600E0204628600498002857
:101A20000DD0002A02DD0098884208D03246081BFB
:101A300069460094CDE9010404A8FFF7B7FF06B09A
:101A400070BD0000ABFFFFFFC3FFFFFF47010000B9
:101A500000487047980E002000487047B80E0020DC
:101A6000034640688C46002818BF88423CBF0346A6
:101A70004068F8D318681844884207D00CF1030076
:101A800020F00700001D411A521A0146081D0A6085
:101A9000FEF765BC30B5B0F10A024FEA900E71F165
:101AA00000034EEA817EB0EB0E0061EB91014FEA3C
:101AB000101E4EEA017E10EB0E0041EB11114FEAB1
:101AC000102E4EEA016E10EB0E0041EB11214FEA91
:101AD000104E4EEA014E10EB0E0041EB1141401842
:101AE00041F100014FEAD00040EA41704FEAD101D4
:101AF00010EB80054FEA810444EA907444EB010442
:101B00006D1944EB0404521BA3414FF0000348BF7E
:101B10000A3200D530BD401C41F1000130BD10B586
:101B20000446FFF795F80068005D00F0010010BD65
:101B30002DE9F04F04460D46D21D22F0070089B072
:101B4000D0E900974846394603F06EFF0246F80F89
:101B500001D02D2307E02068810701D52B2302E067
:101B6000202101EAC0038DF820300BB1012000E0F4
:101B70000020032A824601D0072A04DB294620469A
:101B800000F054F93FE12078800601D40D2500E0F3
:101B9000E569C7F30A560D2D49DA00214FEA175BB4
:101BA00008464FF00000002F00F4400007DA00EB79
:101BB00080004FF4400100EBD07001EA6000811515
:101BC000012901DD4FF0FF3100224FEA850CBCF105
:101BD000180F06D31346ACF118004FF08052C240E4
:101BE00003E04FF4801323FA0CF30CF10C0CBCF15E
:101BF000200F04D3ACF1200C09FA0CF001E007FA35
:101C00000CF000294FF0004801DD18B90FE00ED1AB
:101C100040450CD319EB02095F4121B9404502D17F
:101C20009F4329EA0209BBEB175F00D0761C20888E
:101C3000000502D57B48784402E07A487844193898
:101C400008AA302302F80A30037C0AF10101002EB1
:101C50000AF1020A53546A4602DC4FF0300101E0F7
:101C60004FF031014FF001088DF8001002D0A6F2BC
:101C7000FF3603E059EA470100D06B4E002D02DC2D
:101C80002178090704D54FF002082E218DF80110A4
:101C9000C44600210BE0C7F303433F01C35C491C6A
:101CA0006D1E02F80830052908F1010801DA002D3F
:101CB000F1DC00210CE000EB1973491C1B786D1E50
:101CC000082902F808304FEA091908F1010801DA79
:101CD000002DF0DC21688B0602D516E0A8F1010882
:101CE000E04505DD02EB080313F8013C302BF5D08D
:101CF000B8F1000F09DD02EB080313F8013C2E2BAD
:101D000003D1090701D4A8F10108002D05DD3E210A
:101D100002F808106D1E08F10108407C002E02F840
:101D2000080008F1010804DA2D20764202F80800C4
:101D300002E02B2002F808000A214FF47A70864254
:101D400008F101080BDB96FBF0F3303302F80830A2
:101D500096FBF0F308F1010800FB136601E0642E26
:101D60000CDB642096FBF0F3303302F8083096FB6E
:101D7000F0F308F1010800FB136601E00A2E06DB10
:101D800096FBF1F0303002F8080008F1010896FBEC
:101D9000F1F001FB1060303002F80800A16908F191
:101DA000010808EB050202EB0A00081AA06120787E
:101DB000C00602D42046FEF7AFFB216A08AE01EB55
:101DC0000A00206204E0D4E9012116F8010B9047D3
:101DD000BAF1010AF7D22078C00602D52046FEF7F4
:101DE0009BFB6E4609E016F8010B3E280FD0D4E9A4
:101DF00001219047206A401C2062B8F10108F2D20C
:101E00002046FEF79FFB09B00320BDE8F08F206A53
:101E10002844206203E0D4E90121302090476D1E60
:101E2000EBD3F8E78568000002FCFFFF2DE9F041E5
:101E30001F46044603260168072A01F4006004DBFC
:101E400008B116A505E016A503E008B115A500E048
:101E500015A521F010002060A069C01EA0610FB17F
:101E6000401EA0612046FEF757FB4FB1D4E9012187
:101E700038469047206A401C2062C01C206206E061
:101E8000206AFAE7D4E9012115F8010B9047761E84
:101E9000F8D22046FEF756FBBDE8F0814E414E00D9
:101EA0006E616E00494E4600696E660010B543696A
:101EB00013B1AFF3008001E0FFF7F2F9012010BD8C
:101EC000128800F1240182840022C2840122EDE7FD
:101ED00011684FF0FF32E9E72DE9F34F4FF0000AA8
:101EE0000C4656468DB001200C9001F10C000B9071
:101EF00062690B9801219047051E2DD0252D2CD00D
:101F0000216A8847C0B162690B9801219047216A14
:101F100088470028F7D16269411E0B98904700E07E
:101F2000761CA1690D988847216A88470028F7D157
:101F3000E1690D988847DBE7A1690D988847A842B9
:101F4000074601D1761CD3E7E1690D9888477F1CCD
:101F500002D1BAF1000F6FD06CE162690B980027D3
:101F60003D46394690472A2804D162690B980121E1
:101F700090470125DFF8D08262690B9801219047D4
:101F8000A0F130010A290AD24745E5DC07EB8701B9
:101F900000EB4107303FDFD445F01005ECE7E906E0
:101FA00001D46FF000476C280AD04C2814D0682860
:101FB00015D06A280DD074281CD07A281AD01DE0BC
:101FC00062690B98012190476C2802D045F0040506
:101FD00014E045F002050DE045F020050AE06269D5
:101FE0000B9801219047682802D045F0080505E0CC
:101FF00045F4006562690B9801219047C4E90157D7
:1020000065283DD019DC58287AD00CDC452837D01B
:1020100004DC252826D041289ED131E046282FD047
:10202000472899D12CE05B2877D0612828D06328F5
:102030007CD0642823D15AE0F7E06F2848D008DC30
:1020400066281DD067281BD0692821D06E2816D19C
:1020500027E0702845D0732868D0752847D07828A5
:102060000DD14DE0A1690D988847252805463FF41C
:1020700069AFE1690D9888476D1C3FF46AAFD9E0FC
:102080000D9923466A466FF0010006F0BBF9C6E0E1
:1020900045F0400023464FF000026060A80736D4A8
:1020A0003EE0E8077FF447AF2068011D216000682B
:1020B000290501D506701BE7290701D5068017E71A
:1020C000A90703D5F117C0E9006111E706600FE722
:1020D00045F0400023464FF008026060A80716D480
:1020E0001EE040F60E0125EA0100606016E045F0B2
:1020F000400023464FF00A026060A80707D40FE0B3
:1021000045F040006060A80708D5234610220D99CD
:102110006FF00100AFF3008081E007E0102223465A
:102120000D996FF00100AFF3008078E04FF00009E7
:1021300063284F46C8464B46CB4602D05B2807D0A3
:1021400039E02079C00601D40120A060012732E0E7
:102150006269D4F80CB00B98012190475E2807D132
:102160004FF0010949466269D4F80CB00B989047CA
:10217000216939B900210A4603AB43F82120491CE3
:102180000829FADBD8B3216949B308F1010862696B
:102190000B98012190475D28F4D1B9F1000F09D0C7
:1021A000002003A951F82020D24341F82020401CF0
:1021B0000828F7DB03AB2069002820794FEA40703C
:1021C0001ED05B462246CDF80080CDE901970D99DF
:1021D00000286FF0010020DAAFF300801FE0C11784
:1021E00003AA00EBD1614B1121F01F0102EB830226
:1021F000411A13680120884003431360C7E719E0C0
:102200000D99224600286FF00100009702DAAFF323
:10221000008004E0AFF3008001E0AFF3008000280D
:102220000ADA401C06D10C9820B14FF0FF300FB0F5
:10223000BDE8F08F5046FAE7E90701D10AF1010A3B
:10224000064400200C9053E6CCCCCC0C2DE9F04792
:10225000814616468AB0354878440DC88DE80D0091
:1022600032487844801C03AC0DC884E80D0041F668
:102270009B300844372190FBF1F290FBF1F5A5F17A
:10228000800501FB12041B3C02D56442012000E0E2
:102290000020DFF898A080460027FA44AAF1BE0A81
:1022A0000EE0E0070AD03246684607EB47010123FB
:1022B0000AEB810100F024FE8DE8070064107F1C0A
:1022C000002CEED1194F7F44AE3F19E0E80715D03E
:1022D00007EB04100DF1180A90E80E008AE80E00D2
:1022E000C068F04201D1981908903246012306A92E
:1022F00003A800F005FE03AB83E807006D10641C23
:10230000002DE3D14FF0010332466946B8F1000FCA
:1023100003A802D000F0CAFD01E000F0F1FDC9E918
:102320000001C9F808200AB0BDE8F087F462000097
:1023300070B516460C460546FEF78AFC036893F80E
:102340000101012806D0FF2C0FD8185D68B10120CB
:102350002C7070BDD3F807013246214603F20713F3
:1023600003442846BDE8704018474FF0FF3070BD69
:1023700010B500F07BFABDE8104000F072BA70476B
:102380007546FFF765FBAE4605006946534620F0EB
:102390000700854618B020B5FDF7A0FFBDE8204036
:1023A0004FF000064FF000074FF000084FF0000B11
:1023B00021F00701AC46ACE8C009ACE8C009ACE8C4
:1023C000C009ACE8C0098D46704710B5FEF74CFC5B
:1023D000006810BD10B50446FEF746FC046010BD51
:1023E0003A2800D2303820F02002412A01D3A2F14D
:1023F0003700884201D34FF0FF3070472DE9FF4F7F
:102400001F464FF03C0987B04FF00042DDE9141041
:1024100001F10108DDF858A002EA405003900020C5
:1024200005908346054604460490B969461E0898FF
:102430008847AAF1010A0290BAF1000F3BDD029829
:102440002E2815D01021FFF7CBFF00282EDB4FF0F0
:10245000010B0599014317D0B9F1000F0BDB4A4678
:10246000C11700F031FA05430C43A9F1040905E056
:10247000012004900BE008B145F001050120059012
:10248000049820B9361D02E0049800B1361FB969DE
:10249000089808F101088847BBF1000FAAF1010A6A
:1024A0000290C9D00999C1F80080C5E70298702848
:1024B00008D0502806D0F96908988847BBF1000F6A
:1024C00014D04FE0002002900120BBF1000F0490D7
:1024D00009D0B969089808F101088847AAF10109EB
:1024E000B9F1000F07DCF969089888476FF001001F
:1024F0000BB0BDE8F08F2B2804D02D280CD14FF065
:10250000FF300490B969089808F101088847A9F1DB
:102510000109B9F1000FE6DD411CE4D00A21FFF703
:102520005FFF0028DFDB029908F1010801EB810160
:1025300000EB41000290B969089888470A21FFF72B
:102540004FFF099AA9F10109B9F1000FC2F8008003
:1025500001DD0028E7DAF9690898884704990298AC
:1025600000FB016655EA040004D004F04041090074
:1025700002D006E0039898E0A40044EA9574AD0008
:10258000B61E04F00041080002D16D196441761EA8
:10259000159810F0240F03D04FF00B095C4803E0AE
:1025A0004FF028096FF07D008246564507DAAAEB06
:1025B00006018944B9F1410F01DD4FF041090120C5
:1025C0000021A9F1010200F07FF9024628400B46E4
:1025D0002140084301D0012100E00021501E02915A
:1025E00043F1FF3128402140084301D0012000E0A1
:1025F00000200299834651EA0B014FD00021084682
:102600004FF00000039900F4400039B100EB800066
:102610004FF4400100EBD07001EA60008015012802
:1026200002DD4FF0FF3000E013D0401C36D002989E
:1026300060B3BBF1000F0CD14A460120002100F02D
:1026400043F928402140084301D0012000E0002048
:10265000E0B101204A46002100F036F90346401956
:102660000A4661412D1A8C4111D3B9F1400F09DDA1
:10267000159810F0240F02D0AAF1340603E0AAF155
:10268000170600E0761C00254FF0004406E05B1EB4
:1026900042F1FF3220EA030521EA0204CAF10100F7
:1026A000B04206DA1B4903980843019000200090CD
:1026B0000EE0039AC4F3D321E80A0A43164940EA1C
:1026C00044500A433146CDE90002684603F052FA0D
:1026D000159810F0240F0BD01598C00715D1386845
:1026E000DDE90012031D3B600068C0E900120CE048
:1026F00002A8694603F0D8F91598C00705D13868D3
:10270000029A011D3960006802604046F0E6000050
:1027100002FCFFFF0000F07F0000F03F2DE9FF4FBB
:1027200092461D4685B04FF00041DDE9124BDDE9D0
:1027300014727F1E01EA4B50414940F0FF4940EAC4
:102740000108002122F020004928049102D04E28DF
:1027500028D04CE03BA0012607C88DE80700A969F6
:102760000698641C88477F1E014606D41DF80600A3
:1027700018B121F0200181420BD0E9690698884701
:10278000032E34D0082E32D06FF0010009B0BDE81E
:10279000F08F761C032E01D0082EE0D1601CCAF801
:1027A0000000DCE7A9690698641C88477F1E2AD4CC
:1027B00020F02000412826D1A9690698641C88478A
:1027C0007F1E20D420F020004E281CD1A969069835
:1027D000641C88477F1E48F4002849F48009CAF821
:1027E000004001D4282806D0E969069888475FEAA6
:1027F000CB7012D022E0A9690698641C88477F1E1E
:1028000001D4002803DAE96906988847BCE729283B
:10281000F1D1641CCAF80040E9E71BF0240F07D08F
:1028200028680499031D2B600068C0E9001805E0C2
:102830002868021D2A600068C0F800902046A5E7BD
:102840000000F07F494E46494E49545900000000AF
:1028500010B50446AFF300802046BDE81040FDF7F8
:1028600028BD002801D000F029B8704710B5012814
:1028700005D0002103A000F03AF8012010BD09A105
:10288000F8E7000053494752544D454D3A204F75E3
:1028900074206F662068656170206D656D6F727958
:1028A000000000003A2048656170206D656D6F7210
:1028B0007920636F72727570746564000149182025
:1028C000ABBEFEE726000200B2F120030AD5C2F13A
:1028D000200301FA02F120FA03F300FA02F041EAC0
:1028E0000301704700FA03F14FF00000704770B524
:1028F00005460C460A2000E06D1C00F011F835B1C9
:1029000028780028F8D102E0641C00F009F814B11E
:1029100020780028F8D1BDE870400A20AFF300808D
:1029200008B569468DF800000320ABBE08BD5FEA1C
:10293000400C08BF91F0000F4FEA8C234FEAC122F0
:1029400043EA51514FEA1C5018BF00F5F0404FEADE
:10295000300018BF41F000415FEA6C5C00F0298054
:10296000BCF1FF3F08BF40F080407047130C06BF2A
:1029700012044FF0100C4FF0000C130E04BF1202A3
:102980000CF1080C130F04BF12010CF1040C930F8F
:1029900004BF92000CF1020CD30F04BF52000CF1E3
:1029A000010C11464FF00002A0F11F00A0EB0C003B
:1029B000704711F0004F08BF704731F000413FF4FD
:1029C000D5AF0B0C06BF09044FF0100C4FF0000CF4
:1029D0000B0E04BF09020CF1080C0B0F04BF090118
:1029E0000CF1040C8B0F04BF89000CF1020CCB0F0F
:1029F00004BF49000CF1010CCCF12003A0EB0C004A
:102A000022FA03F302FA0CF241EA030100F1010099
:102A1000704720F07F4C80EA030023F07F47ACEB47
:102A2000070303F57C5300F0004003F1FF032DE999
:102A300080494FEA154B09B44FEA144325EA0B4E7F
:102A400024EA03480FF2042606EB132749083E78D0
:102A50005FEA320203FB0667C7F5000707FB06F6CD
:102A60004FEA54374FEAD64606F1020607FB066CDA
:102A7000CCF1005C4FEA1C472CEA074C07FB06F43C
:102A80000CFB06F504EB15464FEA961634BF002002
:102A90004FF000404FEAD13706FB07FC4FEA1C4CD1
:102AA0000CFB0BF7D21B03FB0CF761EB07010CFBD4
:102AB0000EF7B0EB074072EB17420CFB08F734BF80
:102AC000A2EB0742B2EB074261EB17414FEA0C441D
:102AD0004FEA910706FB07FC4FEA1C4C0CFB0BF777
:102AE000B0EBC74072EB573203FB0CF734BFA2EBDD
:102AF000C742B2EBC74261EB57310CFB0EF7B0EBAC
:102B0000C70072EB57720CFB08F734BFA2EBC70289
:102B1000B2EBC70261EB5771039F4FEA816141EA53
:102B2000921104EBCC044FEAD1374FEA826206FBE4
:102B300007FC42EA90124FEA80604FEA1C4C0CFB03
:102B40000BF7D21B03FB0CF761EB07010CFB0EF735
:102B5000B0EB074072EB17420CFB08F734BFA2EB57
:102B60000742B2EB074261EB17414FEA8C554FEA3F
:102B7000910704EB9C2406FB07FC4FEA1C4C0CFB62
:102B80000BF7B0EBC74072EB573203FB0CF734BFC7
:102B9000A2EBC742B2EBC74261EB57310CFB0EF719
:102BA000B0EBC70072EB57720CFB08F734BFA2EB17
:102BB000C702B2EBC70261EB577115EB4C254FEA28
:102BC000816141EA92114FEA82624FEAD13742EACB
:102BD000901206FB07FC44F100044FEA80604FEAC4
:102BE0001C4C0CFB0BF7D21B03FB0CF761EB070132
:102BF0000CFB0EF7B0EB074072EB17420CFB08F72B
:102C000034BFA2EB0742B2EB074261EB174115EB71
:102C10001C154FEA813141EA92414FEA823242EA81
:102C200090424FEA80304FEA0C7644F1000448EAC3
:102C300003434EEA0B484FF0000EB2EB080C71EB69
:102C4000030724BF624639464EEB0E0E4FF0000BD1
:102C50000018524149414BEB0B0BB2EB080C71EBE6
:102C600003077BF1000B24BF624639464EEB0E0E84
:102C70004FF0000B0018524149414BEB0B0BB2EBEC
:102C8000080C71EB03077BF1000B24BF6246394649
:102C90004EEB0E0E51EA020718BF46F0010616EB86
:102CA0000E7655F1000254F1000103D5BDE889010B
:102CB000BDE80088BDE88901BDE80048B619524169
:102CC00041EB0101A3F10103704780807F7E7D7C91
:102CD0007B7A7978777676757473727171706F6EAE
:102CE0006E6D6C6C6B6A6A69686867666665646459
:102CF000636362616160605F5F5E5E5D5D5C5C5BE3
:102D00005B5A5A5959585857575656555555545451
:102D1000535352525251515050504F4F4F4E4E4DAF
:102D20004D4D4C4C4C4B4B4B4A4A4A4949494848FB
:102D3000484747474746464645454544444444433B
:102D400043434342424242414141000046EA064673
:102D5000A3F570534FEA164646EA42564FEAD2228E
:102D600042EA415210B54FEAD121A3F1010300F02C
:102D70002FF820F0004000F1020C00F0004701EBBA
:102D800000501146BCF5006F40EA070000D210BDAC
:102D9000BAF1000F0AD01CB503B44FF004004FF095
:102DA00004014FF000000FBCBDE810404FF00001DF
:102DB000BBF1010FB9BF04484FF0FF3103480021B8
:102DC00040EA070010BD00BFFFFFEF7F0000F07F6B
:102DD000002B9C4630D477002BD01CB54FEA370728
:102DE00003B44FF010004FF01001BAF1000F06D0FD
:102DF000BCF1000FDCBF40F0080040F008014FF0CC
:102E000000000FBCBDE810400BF1010BBBF1010F3E
:102E100008BF5FEA170722BF12F1010211F1010199
:102E20004FF0004143F1000300F0004043EA00008E
:102E30007047F9D35708D0E746EA064613F1400F2A
:102E40004FEA16461FDD13F1200FDFBF16430A4677
:102E5000002120335B42BED0C3F1200746EA06467C
:102E600002FA07F74FEA164646EA0706C3F12007BB
:102E700022FA03F201FA07F721FA03F14FF00003F7
:102E800042EA0702A7E746EA020646EA06464FEA92
:102E9000164646EA0106BCBF46EA0646360C4FF027
:102EA00000034FF000024FF0000194E72DE9804C41
:102EB0009A46934670B491E8380007C831EA400C4E
:102EC00048BF34EA430C03D5FFF7A3FDFFF780FFAB
:102ED000F0BCBDE8008C2DE9804C9A46934670B456
:102EE00091E8380007C831EA400C48BF34EA430C87
:102EF00003D5FFF78EFDFFF729FFF0BCBDE8008C7E
:102F00002DE9804C9A46934670B491E8380007C882
:102F100010F0804F08BF13F0804F03D100F01AF873
:102F2000FFF756FFF0BCBDE8008C2DE9804C9A46B7
:102F3000934670B491E8380007C810F0804F08BF7E
:102F400013F0804F03D100F005F8FFF7FFFEF0BC4F
:102F5000BDE8008C20F07F4780EA030023F07F4C1F
:102F600007EB0C03A3F57C5300F00040A3F1FE0334
:102F700092F0000F00F0B38095F0000F00F0778022
:102F80002DE901494FEA11404FEA144621EA004871
:102F900000FB06FC24EA064708FB06F607FB08F8D8
:102FA00000FB07F718EB06484CEB164C4FEA124BA8
:102FB00018EB07484FEA15464CEB174022EA0B4E38
:102FC0000BFB06FC25EA06470EFB06F607FB0EFE8A
:102FD0000BFB07F71EEB064E4CEB164C4FF00006B2
:102FE0001EEB074E4CEB174B18EB0B0840F10000A3
:102FF00018EB0E0B58EB000840F100008F1A4FF051
:1030000000013CBFC943661B14BFB5EB040C002193
:103010003CBFC943F61B4FEA17444EEA8E0E27EA1F
:1030200004454FEA1C4704FB07622CEA074C05FBEA
:1030300007F70CFB05F604FB0CFC16EB074642EB0E
:10304000174216EB0C4642EB1C421BEB060658EBF4
:103050000202414146EA9E0601D5BDE80189B61942
:10306000524141EB0101A3F10103BDE801894FEA9F
:1030700014454FEA114724EA054621EA074C05FBAF
:1030800007F406FB07F70CFB06F105FB0CFC11EB44
:10309000074144EB17444FEA124711EB0C4144EB54
:1030A0001C4422EA074C05FB07F206FB07F70CFB62
:1030B00006F605FB0CFC16EB074642EB174216EB37
:1030C0000C4642EB1C456A1854F1000148BF70479A
:1030D000B619524141EB0101A3F10103704795F08C
:1030E000000F37D04FEA11424FEA144721EA024657
:1030F00024EA074C02FB07F106FB07F70CFB06F47A
:1031000002FB0CFC14EB074441EB17414FEA154757
:1031100014EB0C4441EB1C4125EA074C02FB07F57C
:1031200006FB07F70CFB06F602FB0CFC16EB07464A
:1031300045EB174516EB0C4645EB1C42121951F1B5
:10314000000148BF7047B619524141EB0101A3F19C
:10315000010370474FEA14454FEA114724EA054638
:1031600021EA074C05FB07F106FB07F70CFB06F20B
:103170004FF0000605FB0CFC12EB074241EB174138
:1031800012EB0C4251EB1C4148BF7047921841EBC7
:103190000101A3F1010370472DE9F047C6B0804655
:1031A000894692461E464E9810B1B8F1000F03D1E1
:1031B000012046B0BDE8F0874FA801904FF4807120
:1031C00002A8019B4E9AFDF75BF90546002001908D
:1031D000002D01DBFF2D01D90120EAE7002E03DBE2
:1031E000102E01DA34460FE0002406E01A4800EB06
:1031F0000410006800B902E0641C102CF6DB00BF6C
:10320000102C01DB0720D4E7681CFDF779F807468E
:103210000FB90720CDE76A1C02A93846FDF7E9FB84
:103220000D4800EB0410006828B10B4901EB0411B4
:103230000868FDF794F8CDF80C814297ADF810912D
:10324000054800EB0410CDF814A1449BC0E9023AF4
:10325000C0E900780420ACE7A801002070B504465E
:103260000E4625460120287082020249024804F0D9
:1032700087FA70BD580A0020840E002070B50546FC
:103280000E462C4694F8540118B9094804F0C5FAC2
:1032900070BD002084F85401204602F005FD02F0C4
:1032A000D3FC2078032801DB0320207000BFEFE768
:1032B000840E00202DE9F04105460E462C46207E66
:1032C000102805DB0020207603202070BDE8F08167
:1032D000207E174901EB0010006820B900202076FD
:1032E00003202070F2E7237E114F07EB03131A89A6
:1032F000237E07EB03135968237E07EB031318683B
:10330000002300F029F888B9207E394601EB00102F
:10331000C06828B1217E3A4602EB0111C868804797
:10332000207E401C2076034804F077FA00BFCDE7EA
:10333000A8010020840E002070B504460E462546E4
:1033400000221146284602F08FFC284603F0A6F81A
:103350000220287070BD00002DE9F05F0746884606
:1033600016461C464FF0000900254FF00A0B02F0EC
:103370006BFC3846FDF7D3FA1FFA80FA51463846FF
:1033800003F01AFB29E0194890F85401012817D1DD
:10339000164802F089FC154948684146FDF77EFA57
:1033A00060B134B111484FF4806241682046FDF7A6
:1033B00020FB02F049FC4FF0000910E002F044FC51
:1033C0000A2096FBF0FA504602F048FC681CC5B291
:1033D0000A2D02DB4FF0020901E00A2DD3DB00BF0A
:1033E00002F032FC4846BDE8F09F0000500000208B
:1033F00070B509480578092D03DB002006490870DF
:1034000070BD064800EBC504606818B10021024891
:103410006268904700BFF3E75000002010000020D2
:1034200010B51148407801280FD10F48418D00F1A7
:103430000A02801C04F064FA0C2814D100200A4906
:1034400048700320094908700DE0074800780128FA
:1034500009D103F001FA0C2805D1002002490870B7
:1034600003200249087010BD580E002050000020B3
:1034700000BFFEE710B5024800F01EF910BD0000C5
:103480001406002030B590F840500124AC40C56BC4
:103490006C60046863604468102C04D10468A26006
:1034A0000468E16003E00468A1600468E26030BD84
:1034B000704772B600BFFEE70146002291F8210076
:1034C000022808D00420886300BF002081F8200073
:1034D00000BF012070470868006820F00E000B68EC
:1034E00018600868006820F001000B68186091F807
:1034F000403001209840CB6B5860012081F82100BA
:1035000000BF002081F8200000BF1046E2E7000065
:1035100070B50446002594F82100022803D0042049
:10352000A0630125C1E02068006820F00E0021683A
:1035300008602068006820F00100216808605C498C
:103540002068884252D95A4978392068884201D186
:10355000012047E0564964392068884201D1102093
:1035600040E0534950392068884201D1801539E044
:103570004F493C392068884201D1801432E04C49DF
:1035800028392068884202D14FF480302AE0484927
:1035900014392068884202D14FF4801022E0444957
:1035A0002068884201D140041CE0424920688842DA
:1035B00001D1012016E03F4914312068884201D131
:1035C00010200FE03B4928312068884201D1801546
:1035D00008E038493C312068884201D1801401E07C
:1035E0004FF480303349091F086051E03049783981
:1035F0002068884201D1012047E02D4964392068C4
:10360000884201D1102040E0294950392068884281
:1036100001D1801539E026493C392068884201D122
:10362000801432E0224928392068884202D14FF4C0
:1036300080302AE01E4914392068884202D14FF4B4
:10364000801022E01A492068884201D140041CE021
:1036500018492068884201D1012016E0154914312B
:103660002068884201D110200FE0124928312068DB
:10367000884201D1801508E00E493C31206888421B
:1036800001D1801401E04FF480300949803948604D
:10369000012084F8210000BF002084F8200000BF32
:1036A000606B10B12046616B8847284670BD0000F2
:1036B000800002400804024070B50446E06B0568D3
:1036C0002068066894F840100420884028400028AC
:1036D00075D006F004000028FAD02068006800F0D9
:1036E000200028B92068006820F0040021680860E4
:1036F000D5492068884254D9D3497839206888420E
:1037000001D1042049E0D04964392068884201D1C0
:10371000402042E0CC4950392068884201D1001550
:103720003BE0C9493C392068884202D14FF48040CF
:1037300033E0C54928392068884202D14FF48020FF
:103740002BE0C14914392068884202D14FF480002F
:1037500023E0BD492068884201D1C0041DE0BB4977
:103760002068884201D1042017E0B849143120684C
:10377000884201D1402010E0B449283120688842B5
:1037800001D1001509E0B1493C312068884202D1DD
:103790004FF4804001E04FF48020AC49091F0860DD
:1037A00054E0A94978392068884201D104204AE0D0
:1037B000A54964392068884202D1402043E04CE0AA
:1037C000A14950392068884201D100153BE09E494B
:1037D0003C392068884202D14FF4804033E09A4956
:1037E00028392068884202D14FF480202BE0964986
:1037F00014392068884202D14FF4800023E09249B6
:103800002068884201D1C0041DE0904920688842A8
:1038100001D1042017E08D4914312068884201D17C
:10382000402010E0894928312068884201D10015E4
:1038300009E086493C312068884202D14FF480403B
:1038400001E04FF48020804980394860E06A002818
:1038500002D02046E16A8847F4E094F84010022044
:1038600088402840002871D006F002000028FAD0D5
:103870002068006800F0200040B92068006820F04F
:103880000A0021680860012084F821006E49206840
:10389000884254D96C4978392068884201D1022085
:1038A00049E0694964392068884201D1202042E01A
:1038B000654950392068884201D140153BE0624992
:1038C0003C392068884202D14FF4005033E05E4911
:1038D00028392068884202D14FF400302BE05A4941
:1038E00014392068884202D14FF4001023E0564971
:1038F0002068884201D180041DE054492068884234
:1039000001D1022017E0514914312068884201D1C9
:10391000202010E04D4928312068884201D140150F
:1039200009E04A493C312068884202D14FF40050F6
:1039300001E04FF400304549091F086054E0424956
:1039400078392068884202D102204AE057E03E4997
:1039500064392068884201D1202042E03A49503938
:103960002068884201D140153BE037493C39206846
:10397000884202D14FF4005033E03349283920689F
:10398000884202D14FF400302BE02F4914392068CF
:10399000884202D14FF4001023E02B49206888426E
:1039A00001D180041DE029492068884201D102200C
:1039B00017E0264914312068884201D1202010E008
:1039C000224928312068884201D1401509E01F4969
:1039D0003C312068884202D14FF4005001E04FF49E
:1039E000003019498039486000BF002084F8200069
:1039F00000BFA06A30B32046A16A884722E094F84D
:103A00004010082088402840E0B106F00800C8B106
:103A10002068006820F00E002168086094F84010CB
:103A200001208840E16B48600120A06384F82100F8
:103A300000BF002084F8200000BF206B10B120469A
:103A4000216B884770BD00008000024008040240DE
:103A50000146002209B9012070471E4B08689842B0
:103A60000BD21D4B0868C01A1423B0FBF3F0800082
:103A7000086419480838C8630AE0164B0868C01A79
:103A80001423B0FBF3F08000086412480838C863C0
:103A9000022081F821000868026843F6F070824332
:103AA000D1E901031843CB6818430B6918434B69EC
:103AB00018438B691843CB691843024308680260B6
:103AC00000208863012081F82100002081F8200077
:103AD00000BFC1E708040240080002402DE9F041A0
:103AE00004460D4616461F464FF0000800BF94F8E6
:103AF0002000012802D10220BDE8F081012084F8D5
:103B0000200000BF94F8210001282CD1022084F865
:103B100021000020A0632068006820F001002168D7
:103B200008603B46324629462046FFF7ABFCE06A78
:103B300030B12068006840F00E00216808600BE09A
:103B40002068006820F00400216808602068006890
:103B500040F00A00216808602068006840F0010019
:103B60002168086006E000BF002084F8200000BF44
:103B70004FF002084046BFE770B5044600F0B0F9C8
:103B800006462546681C10B104480078054400BF6D
:103B900000F0A6F9801BA842FAD370BD08000020EF
:103BA0002DE9F847024600239C467BE14FF00108CF
:103BB00008FA03F4D1F8008008EA0400A0427DD19D
:103BC000DFF8F4A2D1F80480A8EB0A09D0453AD076
:103BD00014DCB8F1030F50D009DCB8F1000F31D07C
:103BE000B8F1010F1CD0B8F1020F49D120E0B8F1B3
:103BF000110F18D0B8F1120F42D11EE0B9F5881F8D
:103C000025D006DCB9F5803F20D0B9F5801F37D12B
:103C10001AE0B9F5001F18D0B9F5041F30D117E02C
:103C2000D1F80CC02DE0D1F80C8008F1040C28E08C
:103C3000D1F80C8008F1080C23E0D1F80C8008F1D1
:103C40000C0C1EE000BF00BF00BF00BF00BF00BFE4
:103C5000D1F80880B8F1000F02D14FF0040C0BE04E
:103C6000D1F80880B8F1010F03D14FF0080C1461AE
:103C700002E04FF0080C546103E04FF0000C00E04C
:103C800000BF00BFFF2801D8904601E002F1040800
:103C90004646FF2802D84FEA830803E0A3F108084C
:103CA0004FEA88084746D6F800804FF00F0909FA16
:103CB00007F928EA09080CFA07F900E07AE048EA6F
:103CC0000908C6F80080D1F8048008F08058B8F1DF
:103CD000805F6FD100BFDFF8E481D8F8188048F02A
:103CE0000108DFF8D891C9F81880C846D8F81880BC
:103CF00008F00108CDF8008000BF00BF4FEAB938D6
:103D00004FEA930958F829504FEA83784FEA187917
:103D10004FF00F0808FA09F825EA0805DFF8A08136
:103D2000424502D14FF0000824E0DFF89881424577
:103D300002D14FF001081DE0DFF88C81424502D12D
:103D40004FF0020816E0DFF88481424502D14FF0BF
:103D500003080FE0DFF87881424502D14FF00408F4
:103D600008E0DFF87081424502D14FF0050801E01C
:103D70004FF006084FEA83794FEA197908FA09F8F3
:103D800048EA0505DFF850814FEA930948F82950C1
:103D9000D1F8048008F48018B8F5801F0BD1DFF843
:103DA0003C81D8F8008048EA0008DFF83091C9F873
:103DB00000800AE075E0DFF82481D8F8008028EA66
:103DC0000008DFF81891C9F80080D1F8048008F4E1
:103DD0000018B8F5001F0ED1DFF8008108F10408C3
:103DE000D8F8008048EA0008DFF8F09009F10409EB
:103DF000C9F800800DE0DFF8E48008F10408D8F885
:103E0000008028EA0008DFF8D49009F10409C9F815
:103E10000080D1F8048008F40038B8F5003F0ED1D6
:103E2000DFF8B880A8F10408D8F8008048EA000854
:103E3000DFF8A890A9F10409C9F800800DE0DFF8C7
:103E40009C80A8F10408D8F8008028EA0008DFF870
:103E50008C90A9F10409C9F80080D1F8048008F415
:103E60008038B8F5803F0ED1DFF87080A8F10808DF
:103E7000D8F8008048EA0008DFF86090A9F1080946
:103E8000C9F800800DE0DFF85480A8F10808D8F8E0
:103E9000008028EA0008DFF84490A9F10809C9F871
:103EA00000805B1CD1F8008028FA03F8B8F1000FFD
:103EB0007FF47CAEBDE8F8870000111000100240CE
:103EC00000080140000C01400010014000140140B6
:103ED00000180140001C0140080001400804014096
:103EE0000148006870470000000000200348006897
:103EF0000349097808440149086070470000002020
:103F00000800002010B50848006840F0100006497D
:103F10000860032000F0A8F80F2000F007F800F078
:103F20002BF8002010BD00000020024070B50446B0
:103F30000E4800784FF47A71B1FBF0F00C49096833
:103F4000B1FBF0F5284600F0F9FB08B1012070BD87
:103F5000102C07D200222146501E00F047F80548D9
:103F6000046001E00120F2E70020F0E708000020F3
:103F70000C0000200400002008B500BF1148806933
:103F800040F001000F4988610846806900F0010097
:103F9000009000BF00BF00BF0846C06940F08050DD
:103FA000C8610846C06900F08050009000BF00BFA3
:103FB00000BF0549486820F0E06040F000704860AC
:103FC00000BF08BD00100240000001400146084645
:103FD000002809DB00F01F0301229A4043099B00DF
:103FE00003F1E023C3F8002100BF70472DE9F05F23
:103FF00080460D461646002701F02AFD0746394641
:104000002A46334601F00700C0F1070ABAF1040F4F
:1040100002D94FF0040A01E0C0F1070AD14600F1CD
:10402000040ABAF1070F02D24FF0000A01E0A0F132
:10403000030AD4464FF0010A0AFA09FAAAF1010A62
:104040000AEA020A0AFA0CFA4FF0010B0BFA0CFB0F
:10405000ABF1010B0BEA030B4AEA0B042146404685
:1040600001F0FEFCBDE8F09F00BF00F00702064B28
:1040700019684FF6FF031940044B0B4343EA022132
:10408000014B196000BF70470CED00E00000FA051D
:1040900070B504460D460CB9012070BD5A48006841
:1040A00000F00700A8420ED25748006820F0070031
:1040B0002843554908600846006800F00700A842F8
:1040C00001D00120E9E7207800F0020002281DD18C
:1040D000207800F00400042805D14C48406840F4E2
:1040E000E0604A494860207800F00800082805D1BF
:1040F0004648406840F4605044494860434840683E
:1041000020F0F000A168084340494860207800F0A2
:10411000010078B36068012806D13C48006800F4CB
:10412000003090B90120B8E76068022806D137480E
:10413000006800F0007040B90120AEE73348006825
:1041400000F0020008B90120A7E73048406820F0DD
:104150000300616808432D494860FFF7C1FE064629
:1041600009E0FFF7BDFE801B41F28831884202D989
:10417000032092E707E02548406800F00C006168E2
:10418000B0EB810FEDD12048006800F00700A84295
:104190000ED91D48006820F0070028431A4908601E
:1041A0000846006800F00700A84201D0012074E72B
:1041B000207800F00400042807D11448406820F457
:1041C000E060E168084311494860207800F0080089
:1041D000082808D10D48406820F46050216940EA61
:1041E000C1000A49486000F03FF808494968C1F336
:1041F0000311074A515CC840064908600648006838
:10420000FFF794FE002048E7002002400010024023
:10421000528400080C0000200400002001480068BF
:10422000704700000C00002000B5FFF7F7FF0449BD
:104230004968C1F30221034A515CC84000BD000037
:10424000001002406284000800B5FFF7E7FF044950
:104250004968C1F3C221034A515CC84000BD000057
:10426000001002406284000870B500210022002482
:1042700000230020134D696801F00C05F5B1042DF1
:1042800002D0082D19D101E00F4819E00F4DC1F3FC
:104290008346AB5D01F4803555B10A4D6D68C5F3B9
:1042A00040450B4E725D084D5D43B5FBF2F402E0F4
:1042B000084D03FB05F4204602E000BF024800BFA2
:1042C00000BF70BD0010024000127A004084000858
:1042D0005084000800093D00F8B504460CB90120DF
:1042E000F8BD207800F00100002878D0F848406838
:1042F00000F00C0004280CD0F548406800F00C00D9
:10430000082811D1F248406800F48030B0F5803FB1
:104310000AD1EF48006800F4003000285FD06068E0
:1043200000285CD10120DBE700BF6068B0F5803F6A
:1043300006D1E748006840F48030E549086028E08D
:10434000606858B9E248006820F48030E0490860AD
:104350000846006820F4802008601AE06068B0F524
:10436000A02F0BD1DA48006840F48020D8490860BB
:104370000846006840F4803008600AE0D4480068CD
:1043800020F48030D24908600846006820F480207C
:10439000086000BF606888B1FFF7A2FD054606E02F
:1043A000FFF79EFD401B642801D9032098E7C84809
:1043B000006800F400300028F2D010E0FFF790FD14
:1043C000054606E0FFF78CFD401B642801D9032059
:1043D00086E7BF48006800F400300028F2D120785A
:1043E00000F00200022857D1B948406800F00C00E4
:1043F00050B1B748406800F00C00082818D1B44804
:10440000406800F4803098B9B148006800F00200BC
:1044100020B12069012801D0012061E7AC48006883
:1044200020F0F800616940EAC100A949086033E062
:104430002069E8B10120A7490860FFF751FD054652
:1044400006E0FFF74DFD401B022801D9032047E796
:104450009F48006800F002000028F2D09C480068E5
:1044600020F0F800616940EAC1009949086013E052
:10447000002098490860FFF733FD054606E0FFF786
:104480002FFD401B022801D9032029E7904800682E
:1044900000F002000028F2D1207800F0080008287F
:1044A0002DD1A069B8B101208B490860FFF718FD34
:1044B000054606E0FFF714FD401B022801D9032042
:1044C0000EE78348406A00F002000028F2D0012085
:1044D00000F0E4FE13E000207F490860FFF700FDD4
:1044E000054606E0FFF7FCFC401B022801D903202B
:1044F000F6E67748406A00F002000028F2D1207802
:1045000000F00400042873D100277148C06900F04E
:10451000805070B900BF6E48C06940F080506C494F
:10452000C8610846C06900F08050009000BF00BF1D
:1045300001276A48006800F48070B0B967480068D5
:1045400040F4807065490860FFF7CAFC054606E044
:10455000FFF7C6FC401B642801D90320C0E65F4872
:10456000006800F480700028F2D000BFE0680128E5
:1045700006D15748006A40F001005549086227E01B
:10458000E06858B95248006A20F0010050490862BA
:104590000846006A20F00400086219E0E068052877
:1045A0000BD14B48006A40F00400494908620846B4
:1045B000006A40F0010008620AE04548006A20F005
:1045C0000100434908620846006A20F004000862BE
:1045D00000BFE068A0B1FFF783FC054609E0FFF7E4
:1045E0007FFC401B41F28831884202D9032077E6E4
:1045F00022E03748006A00F002000028EFD012E005
:10460000FFF76EFC054608E0FFF76AFC401B41F22D
:104610008831884201D9032062E62D48006A00F003
:1046200002000028F0D1012F05D12948C06920F0EF
:1046300080502749C86100BFE069C8B3244840687A
:1046400000F00C00082860D0E069022848D1002062
:1046500020490866FFF744FC054606E0FFF740FCEA
:10466000401B022801D903203AE61948006800F0EF
:1046700000700028F2D1206AB0F5803F07D11448BD
:10468000406820F40030A168084311494860D4E92B
:10469000080108430E49496821F4741108430C4984
:1046A000486001200B490866FFF71AFC054607E041
:1046B0003DE0FFF715FC401B022801D903200FE65F
:1046C0000348006800F000700028F2D02FE00000DE
:1046D000001002400000424280044242007000404C
:1046E000002014490866FFF7FBFB054606E0FFF7CC
:1046F000F7FB401B022801D90320F1E50E480068B2
:1047000000F000700028F2D111E0E069012800D12A
:10471000E6E50948466806F48031206A814204D102
:1047200006F47011606A814201D00120D8E50020B2
:10473000D6E50000000042420010024070B5044679
:104740002546681EB0F1807F01D301200FE0681E6E
:104750004FF0E02148610F214FF0FF3001F080F968
:1047600000204FF0E021886107200861002070BD23
:104770007047704730B502460B4600BF92F83C00C8
:10478000012801D1022030BD012082F83C0000BF89
:10479000022082F83D00106844681068816824F0A7
:1047A00070041868044310684460144D1068A842EF
:1047B00013D0134D1068A8420FD01068B0F1804F8D
:1047C0000BD0104D1068A84207D00F4D1068A842BA
:1047D00003D00E4D1068A84205D121F08001586821
:1047E000014310688160012082F83D0000BF002075
:1047F00082F83C0000BF00BFC5E70000002C01406C
:10480000003401400004004000080040000C00405B
:1048100010B504460CB9012010BD94F83D0028B92C
:10482000002084F83C00204600F026F8022084F89E
:104830003D00211D206800F087FD012084F846001E
:1048400000BF84F83E0001213F2001554020015562
:104850004120015500BF00BF012084F842004320E1
:104860000155442001554520015500BF012084F821
:104870003D000020D0E7000038B504462068B0F1C4
:10488000804F15D100BF0B48C06940F001000949B5
:10489000C8610846C06900F00100009000BF00BF79
:1048A000002211461C20FFF7A1FB1C20FFF78EFB06
:1048B00038BD000000100240014691F83D0001287B
:1048C00001D001207047022081F83D000868C068CF
:1048D00040F001000B68D860164B0868984213D06E
:1048E000154B086898420FD00868B0F1804F0BD084
:1048F000124B0868984207D0114B0868984203D0C1
:10490000104B086898420CD10868806800F00702D4
:10491000062A0CD00868006840F001000B68186097
:1049200005E00868006840F001000B68186000208E
:10493000C8E70000002C01400034014000040040A2
:1049400000080040000C00402DE9F04104460D46EF
:10495000002700BF94F83C00012802D10220BDE8E6
:10496000F081012084F83C0000BF022084F83D0063
:104970002068866826F0770626F47F4620688660E1
:104980002868502833D00CDC202850D004DC0028C4
:104990004BD0102851D149E0302849D040284CD183
:1049A00039E060282DD0702807D0B0F5805F03D0A3
:1049B000B0F5005F41D10DE041E0D5E902136A682E
:1049C000206800F017FD2068866846F077062068AA
:1049D000866034E0D5E902136A68206800F00AFDB9
:1049E0002068806840F480402168886027E0EA6899
:1049F0006968206800F012FD5021206800F005FD74
:104A00001DE0EA686968206800F01BFD60212068ED
:104A100000F0FBFC13E0EA686968206800F0FEFC27
:104A20004021206800F0F1FC09E000BF00BF00BF9A
:104A30002968206800F0E9FC01E0012700BF00BF01
:104A4000012084F83D0000BF002084F83C0000BF36
:104A5000384684E7704770B504462068C56820680A
:104A6000066906F00200022819D105F002000228AA
:104A700015D1401F216808610120207720688069D6
:104A800000F0030018B12046FFF7E4FF05E02046E0
:104A900000F097F8204600F095F80020207706F007
:104AA0000400042819D105F00400042815D1C043DE
:104AB00021680861022020772068806900F4407036
:104AC00018B12046FFF7C6FF05E0204600F079F850
:104AD000204600F077F80020207706F0080008282C
:104AE00019D105F00800082815D1C04321680861D4
:104AF000042020772068C06900F0030018B1204628
:104B0000FFF7A8FF05E0204600F05BF8204600F024
:104B100059F80020207706F01000102819D105F070
:104B20001000102815D1C0432168086108202077A3
:104B30002068C06900F4407018B12046FFF78AFF72
:104B400005E0204600F03DF8204600F03BF800204C
:104B5000207706F0010048B105F0010030B16FF098
:104B6000010021680861204600F02DF806F0800061
:104B7000802809D105F08000802805D1C043216834
:104B800008612046FFF7F4FD06F04000402809D1F7
:104B900005F04000402805D1C04321680861204647
:104BA00000F01AF806F02000202809D105F02000B6
:104BB000202805D1C043216808612046FFF7D9FDB0
:104BC00070BD7047704710B504462068B0F1804F43
:104BD00001D101F0E3F810BD7047F8B504460D4669
:104BE000164694F8420020282DD105B10EB90120B7
:104BF000F8BD01202063002060633246294620462C
:104C000000F026FE0746206B012819D100BF0020C6
:104C1000009020680068009020684068009000BF05
:104C200000BF00BF00BF21680C3151E8001F41F0F8
:104C3000100021680C3141E80002002AF3D100E0A5
:104C400001273846D4E70220D2E7000070B50446B9
:104C50000D4604492068884203D12946024801F0E4
:104C60000FF870BD0044004084030020704700002E
:104C70002DE9F84F0446206805682068C66820685A
:104C800047694FF00009CA4605F00F09B9F1000F56
:104C90000AD105F0200038B106F0200020B12046EE
:104CA00000F0DAFCBDE8F88FB9F1000F7BD007F017
:104CB000010018B906F49070002874D005F00100C6
:104CC00030B106F4807018B1606C40F0010060648F
:104CD00005F0040030B107F0010018B1606C40F03D
:104CE0000200606405F0020030B107F0010018B165
:104CF000606C40F00400606405F0080048B106F004
:104D0000200010B907F0010018B1606C40F00800F5
:104D10006064606C002845D005F0200028B106F0E2
:104D2000200010B1204600F097FC20684069C0F3D5
:104D3000801A606C00F0080010B9BAF1000F2CD096
:104D4000204600F030FC2068406900F0400000B3CD
:104D500000BF00BF2168143151E8001F21F040005E
:104D60002168143141E80002002AF3D100BFE06B52
:104D700050B17748E16B4863E06BFEF7C9FB88B13F
:104D8000E06B416B88470DE02046FFF76FFF09E0BD
:104D900009E02046FFF76AFF04E02046FFF766FFC0
:104DA000002060647EE7206B012877D105F01000B9
:104DB000002873D006F010000028FAD000BF0020B1
:104DC000009020680068009020684068009000BF54
:104DD00000BF2068406900F0400000285FD0E06B11
:104DE000006840681FFA80F8B8F1000F55D0A08D18
:104DF000404552DDA4F82E80E06B8069202843D026
:104E000000BF00BF21680C3151E8001F21F4807001
:104E100021680C3141E80002002AF3D100BF00BF35
:104E200000BF2168143151E8001F21F00100216802
:104E3000143141E80002002AF3D100BF00BF00BFD7
:104E40002168143151E8001F21F04000216814311D
:104E500041E80002002AF3D100BF202084F842007C
:104E60000020206300BF00BF21680C3151E8001F03
:104E700021F0100021680C3141E80002002AF3D132
:104E800000BFE06BFEF718FB02206063A08DE28D8F
:104E9000801A81B22046FFF7D9FE03E742E0A08DD9
:104EA000E18D401A1FFA80F8E08DD0B3B8F1000F01
:104EB00037D000BF00BF21680C3151E8001F21F43A
:104EC000907021680C3141E80002002AF3D100BF44
:104ED00000BF00BF2168143151E8001F21F001001C
:104EE0002168143141E80002002AF3D100BF2020DC
:104EF00084F842000020206300BF00BF21680C310D
:104F000051E8001F21F0100021680C3141E8000237
:104F1000002AF3D100BF0220606341462046FFF71C
:104F200095FEBFE605F0800030B106F0800018B1B4
:104F3000204600F0F1FCB5E605F0400030B106F087
:104F4000400018B1204600F064FBABE600BFA9E6C4
:104F50006B54000810B504460CB9012010BDA069BF
:104F600000B100E000BF94F8410028B9002084F8A7
:104F70004000204600F02AF8242084F841002068F0
:104F8000C06820F400502168C860204600F0E2FBB1
:104F90002068006920F49040216808612068406919
:104FA00020F02A00216848612068C06840F4005061
:104FB0002168C86000206064202084F8410084F8E3
:104FC00042000020606300BFC8E7000010B586B053
:104FD0000446002002900390049005902A4920681E
:104FE00088424ED100BF2948C06940F400302749AB
:104FF000C8610846C06900F40030019000BF00BFDE
:1050000000BF0846806940F0040088610846806956
:1050100000F00400019000BF00BF042002900220B5
:1050200003900320059002A91948FEF7B9FD082056
:10503000029000200390049002A91548FEF7B0FDED
:10504000144815490860002048600021124881601A
:105050008021C1600021016141618161C161FEF770
:10506000F7FC08B1FEF725FA00BF0B48E063446285
:1050700000BF002211462620FEF7B8FF2620FEF7CB
:10508000A5FF06B010BD0000004400400010024023
:10509000000801406C000240140600207047704771
:1050A0002DE9F84F04460E46174699464FF0000A80
:1050B00094F84100202850D106B117B90120BDE86D
:1050C000F88F00206064212084F84100FEF708FF7B
:1050D0008246A784E784A068B0F5805F04D1206988
:1050E00010B90025B04602E035464FF000081EE03A
:1050F0005346002280212046CDF8009000F03CFC71
:1051000020B1202084F841000320D8E745B9B8F841
:105110000000C0F308002168486008F1020803E0BD
:105120002878216848606D1CE08C401EE084E08C8B
:105130000028DDD15346002240212046CDF80090C2
:1051400000F01AFC20B1202084F841000320B6E7CB
:10515000202084F841000020B1E70220AFE770472B
:1051600000BFFEE702460B461146002008760220EB
:10517000087000207047000008B500BF0A48406969
:1051800040F00100084948610846406900F001000C
:10519000009000BF00BF002211461020FEF726FF3E
:1051A0001020FEF713FF08BD0010024008B500BF35
:1051B0000D48806940F010000B49886108468069FD
:1051C00000F01000009000BF00BF00BF08468069DB
:1051D00040F0040088610846806900F004000090F7
:1051E00000BF00BF08BD00000010024000B587B03E
:1051F00000200390049005900690019002904FF0DB
:1052000080401449086041F61F4048600021114861
:10521000816042F20F71C160002101618161FFF77D
:10522000F7FA08B1FEF745F94FF48050039003A94F
:105230000848FFF789FB08B1FEF73BF90020019011
:10524000029001A90348FFF795FA08B1FEF731F97A
:1052500007B000BD8405002010B50B480B4908605D
:105260004FF4E1304860002108488160C16001616D
:105270000C21416100218161C161FFF76BFE08B122
:10528000FEF717F910BD000000440040CC050020D7
:1052900000BFFEE700BFFEE77047000008B5084901
:1052A0000968C9084FF47A72B1FBF2F141430091E9
:1052B00000BF00BF00994A1E00920029F9D108BD25
:1052C0000C000020704710B5FEF710FE10BD00B5B1
:1052D0008FB0282105A8FBF725FC14216846FBF7B1
:1052E00021FC012005900004069000200790012079
:1052F000099002200C90C1030D914FF4E0110E9122
:1053000005A8FEF7E9FF08B1FEF7D3F80F200090DB
:1053100002200190002002904FF480600390002052
:10532000049002216846FEF7B3FE08B1FEF7C1F80B
:105330000FB000BD7047000010B50248FFF78BFBAF
:1053400010BD00008405002010B50268244B98426F
:105350000ED0244B98420BD0B0F1804F08D0224B96
:10536000984205D0214B984202D0214B984203D15C
:1053700022F070024B681A43194B98420ED0194B19
:1053800098420BD0B0F1804F08D0174B984205D00F
:10539000164B984202D0164B984203D122F4407229
:1053A000CB681A4322F080034C6943EA040202608E
:1053B0008B68C3620B688362094B984202D0094B29
:1053C000984201D10B69036301234361036903F030
:1053D00001031BB1036923F00103036110BD000049
:1053E000002C01400034014000040040000800404F
:1053F000000C004030B50C46816821F47F4142EA40
:10540000032525432943816030BD0A46816821F088
:10541000700142F0070319438160704730B50B46B5
:105420001446026A056A25F001050562816921F0CA
:10543000F00141EA041122F00A021A43816102627A
:1054400030BD30B50B461446026A056A25F01005DA
:105450000562816921F4704141EA043122F0A00221
:1054600042EA03128161026230BD70B505466C6A82
:105470000020E085E0842046FFF7F8FB70BD70B5A2
:1054800006460025746A20684069C0F3C01594F888
:105490004100212805D125B10020E084204600F0FC
:1054A000C8F820684069C0F3801594F842002228AB
:1054B00005D125B10020E085204600F074F8606C2D
:1054C00040F0100060642046FFF7D0FB70BD70B55F
:1054D00005466C6A2868006800F02000002842D168
:1054E000E08500BF00BF21680C3151E8001F21F4A6
:1054F000807021680C3141E80002002AF3D100BF1E
:1055000000BF00BF2168143151E8001F21F00100E5
:105510002168143141E80002002AF3D100BF00BF26
:1055200000BF2168143151E8001F21F040002168BC
:10553000143141E80002002AF3D100BF202084F892
:105540004200206B01280ED100BF00BF21680C3142
:1055500051E8001F21F0100021680C3141E80002E1
:10556000002AF3D100BF00206063206B012804D122
:10557000A18D2046FFF76AFB02E02046FFF78EFD73
:1055800070BD70B505466C6A01206063206B012810
:1055900005D1A08D41082046FFF758FB02E02046C8
:1055A000FFF77DFD70BD00BF00BF02680C3252E8FE
:1055B000002F22F4907102680C3242E80013002B95
:1055C000F3D100BF00BF00BF0268143252E8002FC1
:1055D00022F001010268143242E80013002BF3D1DB
:1055E00000BF016B01290ED100BF00BF02680C3261
:1055F00052E8002F22F0100102680C3242E800133A
:10560000002BF3D100BF202180F84210002101635C
:10561000704710B504462068C06820F0400021683B
:10562000C860202084F841002046FFF798FD002044
:1056300010BD00BF00BF02680C3252E8002F22F0FC
:10564000C00102680C3242E80013002BF3D100BF06
:10565000202180F841107047F8B5044694F84200C4
:10566000222875D1A068B0F5805F0CD1206950B9AF
:105670000025A66A20684068C0F308003080A06A50
:10568000801CA06215E0A56A0026A068B0F5805FC6
:1056900003D0A06828B9206918B92068406828702C
:1056A00004E02068406800F07F002870A06A401C79
:1056B000A062E08D401E80B2E085002846D12068BF
:1056C000C06820F020002168C8602068C06820F40D
:1056D00080702168C8602068406920F0010021685E
:1056E0004861202084F8420000206063206B01287C
:1056F00026D10020206300BF00BF21680C3151E893
:10570000001F21F0100021680C3141E80002002A3E
:10571000F3D100BF2068006800F0100010280AD103
:1057200000BF00200090206800680090206840685A
:10573000009000BF00BFA18D2046FFF787FA02E06E
:105740002046FFF7ABFC0020F8BD01E00020FBE79E
:105750000220F9E770B504462168096921F4405137
:10576000E2681143226811612269A16811436269EC
:1057700041EA02052168C96841F20C62914329435C
:105780002268D1602168496921F44071A2691143FE
:10579000226851612D4A2168914202D1FEF754FDE1
:1057A00001E0FEF741FD00EBC00101EB0011626872
:1057B0009200B1FBF2F100EBC00202EB0012636851
:1057C0009B00B2FBF3F26423B2FBF3F202EBC203E1
:1057D00003EB0212A1EB8201322202EB01116422DF
:1057E000B1FBF2F101F0F00100EBC00202EB00129C
:1057F00063689B00B2FBF3F26423B2FBF3F201EBAC
:10580000021200EBC00101EB001163689B00B1FBC9
:10581000F3F100EBC00303EB00136668B600B3FBC3
:10582000F6F36426B3FBF6F303EBC30606EB0313B0
:10583000A1EB8301322303EB01116423B1FBF3F1EC
:1058400001F00F0111442268916070BD00380140E1
:1058500077B581B0044615460298A062A585002060
:105860006064222084F842002848E16B886228485E
:10587000E16BC8622748E16B08630020E16B486375
:1058800002AE32682368191D2B46E06BFEF726F93D
:1058900000BF0020009020680068009020684068E9
:1058A000009000BF00BF206970B100BF00BF216839
:1058B0000C3151E8001F41F4807021680C3141E83F
:1058C0000002002AF3D100BF00BF00BF21681431DD
:1058D00051E8001F41F001002168143141E8000245
:1058E000002AF3D100BF00BF00BF2168143151E886
:1058F000001F41F040002168143141E80002002AF5
:10590000F3D100BF002004B070BD0000CF540008E8
:10591000835500087F540008014691F84100212872
:1059200028D18868B0F5805F0BD1086948B90A6A48
:105930001088C0F308000B685860086A801C086271
:1059400005E00B6A581C086218780B685860C88C10
:10595000401E80B2C88458B90868C06820F0800032
:105960000B68D8600868C06840F040000B68D860D9
:10597000002070470220FCE72DE9F84304460D465D
:1059800017469846089E31E0701C70B3FEF7A8FADF
:10599000A0EB0800B04200D816B90320BDE8F88398
:1059A0002068C06800F00400F8B1802D1ED0402DA2
:1059B0001CD020680068C0F3C000B0B100BF002058
:1059C000009020680068009020684068009000BF48
:1059D00000BF2046FFF7E7FD0820606400BF0020FD
:1059E00084F8400000BF0120D8E7FFE72068006886
:1059F0002840A84201D1012000E00020B842C3D0D5
:105A00000020CBE710B50548FFF732F94FF40072DC
:105A100003490248FFF7E1F810BD0000CC05002063
:105A20008403002000BFFEE7490050EAC12018BFF0
:105A300004204A0D18BF40F0010040F2FF72B2EBA3
:105A4000515F08BF40F00200012808BF05207047E1
:105A500002480068C0F30220704700000CED00E02F
:105A600010B5002804DB0A07130E054A135406E09C
:105A70000A07140E034A00F00F031B1FD45410BD75
:105A800000E400E018ED00E040F2013200204FF0A9
:105A9000E04102F089BC0000024A0020110702F038
:105AA00083BC000001FDFFFF10B50446D1E90001F1
:105AB00000F002F8206010BDF8B504460D466A46B5
:105AC00000F022FC00987E30009000281EDC0022AE
:105AD00013462046294602F04DF917D0002140F622
